{
  "_format": "hh-sol-artifact-1",
  "contractName": "GameToken",
  "sourceName": "contracts/GameToken.sol",
  "abi": [
    {
      "inputs": [
        {
          "internalType": "string",
          "name": "n",
          "type": "string"
        },
        {
          "internalType": "string",
          "name": "s",
          "type": "string"
        },
        {
          "internalType": "address",
          "name": "holder",
          "type": "address"
        },
        {
          "internalType": "uint256",
          "name": "initial",
          "type": "uint256"
        }
      ],
      "stateMutability": "nonpayable",
      "type": "constructor"
    },
    {
      "inputs": [],
      "name": "ECDSAInvalidSignature",
      "type": "error"
    },
    {
      "inputs": [
        {
          "internalType": "uint256",
          "name": "length",
          "type": "uint256"
        }
      ],
      "name": "ECDSAInvalidSignatureLength",
      "type": "error"
    },
    {
      "inputs": [
        {
          "internalType": "bytes32",
          "name": "s",
          "type": "bytes32"
        }
      ],
      "name": "ECDSAInvalidSignatureS",
      "type": "error"
    },
    {
      "inputs": [
        {
          "internalType": "address",
          "name": "spender",
          "type": "address"
        },
        {
          "internalType": "uint256",
          "name": "allowance",
          "type": "uint256"
        },
        {
          "internalType": "uint256",
          "name": "needed",
          "type": "uint256"
        }
      ],
      "name": "ERC20InsufficientAllowance",
      "type": "error"
    },
    {
      "inputs": [
        {
          "internalType": "address",
          "name": "sender",
          "type": "address"
        },
        {
          "internalType": "uint256",
          "name": "balance",
          "type": "uint256"
        },
        {
          "internalType": "uint256",
          "name": "needed",
          "type": "uint256"
        }
      ],
      "name": "ERC20InsufficientBalance",
      "type": "error"
    },
    {
      "inputs": [
        {
          "internalType": "address",
          "name": "approver",
          "type": "address"
        }
      ],
      "name": "ERC20InvalidApprover",
      "type": "error"
    },
    {
      "inputs": [
        {
          "internalType": "address",
          "name": "receiver",
          "type": "address"
        }
      ],
      "name": "ERC20InvalidReceiver",
      "type": "error"
    },
    {
      "inputs": [
        {
          "internalType": "address",
          "name": "sender",
          "type": "address"
        }
      ],
      "name": "ERC20InvalidSender",
      "type": "error"
    },
    {
      "inputs": [
        {
          "internalType": "address",
          "name": "spender",
          "type": "address"
        }
      ],
      "name": "ERC20InvalidSpender",
      "type": "error"
    },
    {
      "inputs": [
        {
          "internalType": "uint256",
          "name": "deadline",
          "type": "uint256"
        }
      ],
      "name": "ERC2612ExpiredSignature",
      "type": "error"
    },
    {
      "inputs": [
        {
          "internalType": "address",
          "name": "signer",
          "type": "address"
        },
        {
          "internalType": "address",
          "name": "owner",
          "type": "address"
        }
      ],
      "name": "ERC2612InvalidSigner",
      "type": "error"
    },
    {
      "inputs": [
        {
          "internalType": "address",
          "name": "account",
          "type": "address"
        },
        {
          "internalType": "uint256",
          "name": "currentNonce",
          "type": "uint256"
        }
      ],
      "name": "InvalidAccountNonce",
      "type": "error"
    },
    {
      "inputs": [],
      "name": "InvalidShortString",
      "type": "error"
    },
    {
      "inputs": [
        {
          "internalType": "address",
          "name": "owner",
          "type": "address"
        }
      ],
      "name": "OwnableInvalidOwner",
      "type": "error"
    },
    {
      "inputs": [
        {
          "internalType": "address",
          "name": "account",
          "type": "address"
        }
      ],
      "name": "OwnableUnauthorizedAccount",
      "type": "error"
    },
    {
      "inputs": [
        {
          "internalType": "string",
          "name": "str",
          "type": "string"
        }
      ],
      "name": "StringTooLong",
      "type": "error"
    },
    {
      "anonymous": false,
      "inputs": [
        {
          "indexed": true,
          "internalType": "address",
          "name": "owner",
          "type": "address"
        },
        {
          "indexed": true,
          "internalType": "address",
          "name": "spender",
          "type": "address"
        },
        {
          "indexed": false,
          "internalType": "uint256",
          "name": "value",
          "type": "uint256"
        }
      ],
      "name": "Approval",
      "type": "event"
    },
    {
      "anonymous": false,
      "inputs": [],
      "name": "EIP712DomainChanged",
      "type": "event"
    },
    {
      "anonymous": false,
      "inputs": [
        {
          "indexed": true,
          "internalType": "address",
          "name": "minter",
          "type": "address"
        },
        {
          "indexed": true,
          "internalType": "bool",
          "name": "enabled",
          "type": "bool"
        }
      ],
      "name": "MinterSet",
      "type": "event"
    },
    {
      "anonymous": false,
      "inputs": [
        {
          "indexed": true,
          "internalType": "address",
          "name": "previousOwner",
          "type": "address"
        },
        {
          "indexed": true,
          "internalType": "address",
          "name": "newOwner",
          "type": "address"
        }
      ],
      "name": "OwnershipTransferred",
      "type": "event"
    },
    {
      "anonymous": false,
      "inputs": [
        {
          "indexed": true,
          "internalType": "address",
          "name": "to",
          "type": "address"
        },
        {
          "indexed": true,
          "internalType": "uint256",
          "name": "amount",
          "type": "uint256"
        },
        {
          "indexed": true,
          "internalType": "address",
          "name": "minter",
          "type": "address"
        }
      ],
      "name": "TokenMinted",
      "type": "event"
    },
    {
      "anonymous": false,
      "inputs": [
        {
          "indexed": true,
          "internalType": "address",
          "name": "from",
          "type": "address"
        },
        {
          "indexed": true,
          "internalType": "address",
          "name": "to",
          "type": "address"
        },
        {
          "indexed": false,
          "internalType": "uint256",
          "name": "value",
          "type": "uint256"
        }
      ],
      "name": "Transfer",
      "type": "event"
    },
    {
      "inputs": [],
      "name": "CAP",
      "outputs": [
        {
          "internalType": "uint256",
          "name": "",
          "type": "uint256"
        }
      ],
      "stateMutability": "view",
      "type": "function"
    },
    {
      "inputs": [],
      "name": "DOMAIN_SEPARATOR",
      "outputs": [
        {
          "internalType": "bytes32",
          "name": "",
          "type": "bytes32"
        }
      ],
      "stateMutability": "view",
      "type": "function"
    },
    {
      "inputs": [
        {
          "internalType": "address",
          "name": "owner",
          "type": "address"
        },
        {
          "internalType": "address",
          "name": "spender",
          "type": "address"
        }
      ],
      "name": "allowance",
      "outputs": [
        {
          "internalType": "uint256",
          "name": "",
          "type": "uint256"
        }
      ],
      "stateMutability": "view",
      "type": "function"
    },
    {
      "inputs": [
        {
          "internalType": "address",
          "name": "spender",
          "type": "address"
        },
        {
          "internalType": "uint256",
          "name": "value",
          "type": "uint256"
        }
      ],
      "name": "approve",
      "outputs": [
        {
          "internalType": "bool",
          "name": "",
          "type": "bool"
        }
      ],
      "stateMutability": "nonpayable",
      "type": "function"
    },
    {
      "inputs": [
        {
          "internalType": "address",
          "name": "account",
          "type": "address"
        }
      ],
      "name": "balanceOf",
      "outputs": [
        {
          "internalType": "uint256",
          "name": "",
          "type": "uint256"
        }
      ],
      "stateMutability": "view",
      "type": "function"
    },
    {
      "inputs": [],
      "name": "decimals",
      "outputs": [
        {
          "internalType": "uint8",
          "name": "",
          "type": "uint8"
        }
      ],
      "stateMutability": "view",
      "type": "function"
    },
    {
      "inputs": [],
      "name": "eip712Domain",
      "outputs": [
        {
          "internalType": "bytes1",
          "name": "fields",
          "type": "bytes1"
        },
        {
          "internalType": "string",
          "name": "name",
          "type": "string"
        },
        {
          "internalType": "string",
          "name": "version",
          "type": "string"
        },
        {
          "internalType": "uint256",
          "name": "chainId",
          "type": "uint256"
        },
        {
          "internalType": "address",
          "name": "verifyingContract",
          "type": "address"
        },
        {
          "internalType": "bytes32",
          "name": "salt",
          "type": "bytes32"
        },
        {
          "internalType": "uint256[]",
          "name": "extensions",
          "type": "uint256[]"
        }
      ],
      "stateMutability": "view",
      "type": "function"
    },
    {
      "inputs": [
        {
          "internalType": "address",
          "name": "to",
          "type": "address"
        },
        {
          "internalType": "uint256",
          "name": "amount",
          "type": "uint256"
        }
      ],
      "name": "mint",
      "outputs": [],
      "stateMutability": "nonpayable",
      "type": "function"
    },
    {
      "inputs": [],
      "name": "name",
      "outputs": [
        {
          "internalType": "string",
          "name": "",
          "type": "string"
        }
      ],
      "stateMutability": "view",
      "type": "function"
    },
    {
      "inputs": [
        {
          "internalType": "address",
          "name": "owner",
          "type": "address"
        }
      ],
      "name": "nonces",
      "outputs": [
        {
          "internalType": "uint256",
          "name": "",
          "type": "uint256"
        }
      ],
      "stateMutability": "view",
      "type": "function"
    },
    {
      "inputs": [],
      "name": "owner",
      "outputs": [
        {
          "internalType": "address",
          "name": "",
          "type": "address"
        }
      ],
      "stateMutability": "view",
      "type": "function"
    },
    {
      "inputs": [
        {
          "internalType": "address",
          "name": "owner",
          "type": "address"
        },
        {
          "internalType": "address",
          "name": "spender",
          "type": "address"
        },
        {
          "internalType": "uint256",
          "name": "value",
          "type": "uint256"
        },
        {
          "internalType": "uint256",
          "name": "deadline",
          "type": "uint256"
        },
        {
          "internalType": "uint8",
          "name": "v",
          "type": "uint8"
        },
        {
          "internalType": "bytes32",
          "name": "r",
          "type": "bytes32"
        },
        {
          "internalType": "bytes32",
          "name": "s",
          "type": "bytes32"
        }
      ],
      "name": "permit",
      "outputs": [],
      "stateMutability": "nonpayable",
      "type": "function"
    },
    {
      "inputs": [],
      "name": "renounceOwnership",
      "outputs": [],
      "stateMutability": "nonpayable",
      "type": "function"
    },
    {
      "inputs": [
        {
          "internalType": "address",
          "name": "minter",
          "type": "address"
        },
        {
          "internalType": "bool",
          "name": "enable",
          "type": "bool"
        }
      ],
      "name": "setMinter",
      "outputs": [],
      "stateMutability": "nonpayable",
      "type": "function"
    },
    {
      "inputs": [],
      "name": "symbol",
      "outputs": [
        {
          "internalType": "string",
          "name": "",
          "type": "string"
        }
      ],
      "stateMutability": "view",
      "type": "function"
    },
    {
      "inputs": [],
      "name": "totalSupply",
      "outputs": [
        {
          "internalType": "uint256",
          "name": "",
          "type": "uint256"
        }
      ],
      "stateMutability": "view",
      "type": "function"
    },
    {
      "inputs": [
        {
          "internalType": "address",
          "name": "to",
          "type": "address"
        },
        {
          "internalType": "uint256",
          "name": "value",
          "type": "uint256"
        }
      ],
      "name": "transfer",
      "outputs": [
        {
          "internalType": "bool",
          "name": "",
          "type": "bool"
        }
      ],
      "stateMutability": "nonpayable",
      "type": "function"
    },
    {
      "inputs": [
        {
          "internalType": "address",
          "name": "from",
          "type": "address"
        },
        {
          "internalType": "address",
          "name": "to",
          "type": "address"
        },
        {
          "internalType": "uint256",
          "name": "value",
          "type": "uint256"
        }
      ],
      "name": "transferFrom",
      "outputs": [
        {
          "internalType": "bool",
          "name": "",
          "type": "bool"
        }
      ],
      "stateMutability": "nonpayable",
      "type": "function"
    },
    {
      "inputs": [
        {
          "internalType": "address",
          "name": "newOwner",
          "type": "address"
        }
      ],
      "name": "transferOwnership",
      "outputs": [],
      "stateMutability": "nonpayable",
      "type": "function"
    }
  ],
  "bytecode": "0x61016060405234801561001157600080fd5b5060405161193438038061193483398101604081905261003091610470565b338480604051806040016040528060018152602001603160f81b8152508787816003908161005e9190610586565b50600461006b8282610586565b5061007b91508390506005610188565b6101205261008a816006610188565b61014052815160208084019190912060e052815190820120610100524660a05261011760e05161010051604080517f8b73c3c69bb8fe3d512ecc4cf759cc79239f7b179b0ffacaa9a75d522b39400f60208201529081019290925260608201524660808201523060a082015260009060c00160405160208183030381529060405280519060200120905090565b60805250503060c052506001600160a01b03811661015057604051631e4fbdf760e01b8152600060048201526024015b60405180910390fd5b610159816101bb565b50610164828261020d565b5050336000908152600960205260409020805460ff19166001179055506106bd9050565b60006020835110156101a45761019d83610247565b90506101b5565b816101af8482610586565b5060ff90505b92915050565b600880546001600160a01b038381166001600160a01b0319831681179093556040519116919082907f8be0079c531659141344cd1fd0a4f28419497f9722a3daafe3b4186f6b6457e090600090a35050565b6001600160a01b0382166102375760405163ec442f0560e01b815260006004820152602401610147565b61024360008383610285565b5050565b600080829050601f81511115610272578260405163305a27a960e01b81526004016101479190610645565b805161027d82610678565b179392505050565b6001600160a01b0383166102b05780600260008282546102a5919061069c565b909155506103229050565b6001600160a01b038316600090815260208190526040902054818110156103035760405163391434e360e21b81526001600160a01b03851660048201526024810182905260448101839052606401610147565b6001600160a01b03841660009081526020819052604090209082900390555b6001600160a01b03821661033e5760028054829003905561035d565b6001600160a01b03821660009081526020819052604090208054820190555b816001600160a01b0316836001600160a01b03167fddf252ad1be2c89b69c2b068fc378daa952ba7f163c4a11628f55a4df523b3ef836040516103a291815260200190565b60405180910390a3505050565b634e487b7160e01b600052604160045260246000fd5b60005b838110156103e05781810151838201526020016103c8565b50506000910152565b600082601f8301126103fa57600080fd5b81516001600160401b0380821115610414576104146103af565b604051601f8301601f19908116603f0116810190828211818310171561043c5761043c6103af565b8160405283815286602085880101111561045557600080fd5b6104668460208301602089016103c5565b9695505050505050565b6000806000806080858703121561048657600080fd5b84516001600160401b038082111561049d57600080fd5b6104a9888389016103e9565b955060208701519150808211156104bf57600080fd5b506104cc878288016103e9565b604087015190945090506001600160a01b03811681146104eb57600080fd5b6060959095015193969295505050565b600181811c9082168061050f57607f821691505b60208210810361052f57634e487b7160e01b600052602260045260246000fd5b50919050565b601f821115610581576000816000526020600020601f850160051c8101602086101561055e5750805b601f850160051c820191505b8181101561057d5782815560010161056a565b5050505b505050565b81516001600160401b0381111561059f5761059f6103af565b6105b3816105ad84546104fb565b84610535565b602080601f8311600181146105e857600084156105d05750858301515b600019600386901b1c1916600185901b17855561057d565b600085815260208120601f198616915b82811015610617578886015182559484019460019091019084016105f8565b50858210156106355787850151600019600388901b60f8161c191681555b5050505050600190811b01905550565b60208152600082518060208401526106648160408501602087016103c5565b601f01601f19169190910160400192915050565b8051602080830151919081101561052f5760001960209190910360031b1b16919050565b808201808211156101b557634e487b7160e01b600052601160045260246000fd5b60805160a05160c05160e05161010051610120516101405161121d61071760003960006109cc0152600061099f0152600061088901526000610861015260006107bc015260006107e601526000610810015261121d6000f3fe608060405234801561001057600080fd5b50600436106100f15760003560e01c806306fdde03146100f6578063095ea7b31461011457806318160ddd1461013757806323b872dd14610149578063313ce5671461015c5780633644e5151461016b57806340c10f191461017357806370a0823114610188578063715018a6146101b15780637ecebe00146101b957806384b0196e146101cc5780638da5cb5b146101e757806395d89b41146101fc578063a9059cbb14610204578063cf456ae714610217578063d505accf1461022a578063dd62ed3e1461023d578063ec81b48314610250578063f2fde38b14610262575b600080fd5b6100fe610275565b60405161010b9190610f0f565b60405180910390f35b610127610122366004610f45565b610307565b604051901515815260200161010b565b6002545b60405190815260200161010b565b610127610157366004610f6f565b610321565b6040516012815260200161010b565b61013b610345565b610186610181366004610f45565b610354565b005b61013b610196366004610fab565b6001600160a01b031660009081526020819052604090205490565b610186610448565b61013b6101c7366004610fab565b61045c565b6101d461047a565b60405161010b9796959493929190610fc6565b6101ef6104c0565b60405161010b919061105f565b6100fe6104cf565b610127610212366004610f45565b6104de565b610186610225366004611073565b6104ec565b6101866102383660046110af565b610548565b61013b61024b366004611122565b610682565b61013b6a52b7d2dcc80cd2e400000081565b610186610270366004610fab565b6106ad565b60606003805461028490611155565b80601f01602080910402602001604051908101604052809291908181526020018280546102b090611155565b80156102fd5780601f106102d2576101008083540402835291602001916102fd565b820191906000526020600020905b8154815290600101906020018083116102e057829003601f168201915b5050505050905090565b6000336103158185856106eb565b60019150505b92915050565b60003361032f8582856106fd565b61033a858585610750565b506001949350505050565b600061034f6107af565b905090565b3360009081526009602052604090205460ff166103a55760405162461bcd60e51b815260206004820152600a6024820152692727aa2fa6a4a72a22a960b11b60448201526064015b60405180910390fd5b6a52b7d2dcc80cd2e4000000816103bb60025490565b6103c5919061118f565b11156104025760405162461bcd60e51b815260206004820152600c60248201526b10d05417d15610d15151115160a21b604482015260640161039c565b61040c82826108da565b604051339082906001600160a01b038516907fb1b546c433a945ed8978553b61c0d3a10e3bdef573481f9a0917a34d36fb39d690600090a45050565b610450610914565b61045a6000610946565b565b6001600160a01b03811660009081526007602052604081205461031b565b60006060806000806000606061048e610998565b6104966109c5565b60408051600080825260208201909252600f60f81b9b939a50919850469750309650945092509050565b6008546001600160a01b031690565b60606004805461028490611155565b600033610315818585610750565b6104f4610914565b6001600160a01b038216600081815260096020526040808220805460ff191685151590811790915590519092917f583b0aa0e528532caf4b907c11d7a8158a122fe2a6fb80cd9b09776ebea8d92d91a35050565b8342111561056c5760405163313c898160e11b81526004810185905260240161039c565b60007f6e71edae12b1b97f4d1f60370fef10105fa2faae0126114a169c64845d6126c98888886105b98c6001600160a01b0316600090815260076020526040902080546001810190915590565b6040805160208101969096526001600160a01b0394851690860152929091166060840152608083015260a082015260c0810186905260e0016040516020818303038152906040528051906020012090506000610614826109f2565b9050600061062482878787610a1f565b9050896001600160a01b0316816001600160a01b03161461066b576040516325c0072360e11b81526001600160a01b0380831660048301528b16602482015260440161039c565b6106768a8a8a6106eb565b50505050505050505050565b6001600160a01b03918216600090815260016020908152604080832093909416825291909152205490565b6106b5610914565b6001600160a01b0381166106df576000604051631e4fbdf760e01b815260040161039c919061105f565b6106e881610946565b50565b6106f88383836001610a4d565b505050565b60006107098484610682565b9050600019811461074a578181101561073b57828183604051637dc7a0d960e11b815260040161039c939291906111b0565b61074a84848484036000610a4d565b50505050565b6001600160a01b03831661077a576000604051634b637e8f60e11b815260040161039c919061105f565b6001600160a01b0382166107a457600060405163ec442f0560e01b815260040161039c919061105f565b6106f8838383610b22565b6000306001600160a01b037f00000000000000000000000000000000000000000000000000000000000000001614801561080857507f000000000000000000000000000000000000000000000000000000000000000046145b1561083257507f000000000000000000000000000000000000000000000000000000000000000090565b61034f604080517f8b73c3c69bb8fe3d512ecc4cf759cc79239f7b179b0ffacaa9a75d522b39400f60208201527f0000000000000000000000000000000000000000000000000000000000000000918101919091527f000000000000000000000000000000000000000000000000000000000000000060608201524660808201523060a082015260009060c00160405160208183030381529060405280519060200120905090565b6001600160a01b03821661090457600060405163ec442f0560e01b815260040161039c919061105f565b61091060008383610b22565b5050565b3361091d6104c0565b6001600160a01b03161461045a573360405163118cdaa760e01b815260040161039c919061105f565b600880546001600160a01b038381166001600160a01b0319831681179093556040519116919082907f8be0079c531659141344cd1fd0a4f28419497f9722a3daafe3b4186f6b6457e090600090a35050565b606061034f7f00000000000000000000000000000000000000000000000000000000000000006005610c39565b606061034f7f00000000000000000000000000000000000000000000000000000000000000006006610c39565b600061031b6109ff6107af565b8360405161190160f01b8152600281019290925260228201526042902090565b600080600080610a3188888888610ce4565b925092509250610a418282610da9565b50909695505050505050565b6001600160a01b038416610a7757600060405163e602df0560e01b815260040161039c919061105f565b6001600160a01b038316610aa1576000604051634a1406b160e11b815260040161039c919061105f565b6001600160a01b038085166000908152600160209081526040808320938716835292905220829055801561074a57826001600160a01b0316846001600160a01b03167f8c5be1e5ebec7d5bd14f71427d1e84f3dd0314c0f7b2291e5b200ac8c7c3b92584604051610b1491815260200190565b60405180910390a350505050565b6001600160a01b038316610b4d578060026000828254610b42919061118f565b90915550610bac9050565b6001600160a01b03831660009081526020819052604090205481811015610b8d5783818360405163391434e360e21b815260040161039c939291906111b0565b6001600160a01b03841660009081526020819052604090209082900390555b6001600160a01b038216610bc857600280548290039055610be7565b6001600160a01b03821660009081526020819052604090208054820190555b816001600160a01b0316836001600160a01b03167fddf252ad1be2c89b69c2b068fc378daa952ba7f163c4a11628f55a4df523b3ef83604051610c2c91815260200190565b60405180910390a3505050565b606060ff8314610c5357610c4c83610e62565b905061031b565b818054610c5f90611155565b80601f0160208091040260200160405190810160405280929190818152602001828054610c8b90611155565b8015610cd85780601f10610cad57610100808354040283529160200191610cd8565b820191906000526020600020905b815481529060010190602001808311610cbb57829003601f168201915b5050505050905061031b565b600080806fa2a8918ca85bafe22016d0b997e4df60600160ff1b03841115610d155750600091506003905082610d9f565b604080516000808252602082018084528a905260ff891692820192909252606081018790526080810186905260019060a0016020604051602081039080840390855afa158015610d69573d6000803e3d6000fd5b5050604051601f1901519150506001600160a01b038116610d9557506000925060019150829050610d9f565b9250600091508190505b9450945094915050565b6000826003811115610dbd57610dbd6111d1565b03610dc6575050565b6001826003811115610dda57610dda6111d1565b03610df85760405163f645eedf60e01b815260040160405180910390fd5b6002826003811115610e0c57610e0c6111d1565b03610e2d5760405163fce698f760e01b81526004810182905260240161039c565b6003826003811115610e4157610e416111d1565b03610910576040516335e2f38360e21b81526004810182905260240161039c565b60606000610e6f83610ea1565b604080516020808252818301909252919250600091906020820181803683375050509182525060208101929092525090565b600060ff8216601f81111561031b57604051632cd44ac360e21b815260040160405180910390fd5b6000815180845260005b81811015610eef57602081850181015186830182015201610ed3565b506000602082860101526020601f19601f83011685010191505092915050565b602081526000610f226020830184610ec9565b9392505050565b80356001600160a01b0381168114610f4057600080fd5b919050565b60008060408385031215610f5857600080fd5b610f6183610f29565b946020939093013593505050565b600080600060608486031215610f8457600080fd5b610f8d84610f29565b9250610f9b60208501610f29565b9150604084013590509250925092565b600060208284031215610fbd57600080fd5b610f2282610f29565b60ff60f81b881681526000602060e06020840152610fe760e084018a610ec9565b8381036040850152610ff9818a610ec9565b606085018990526001600160a01b038816608086015260a0850187905284810360c08601528551808252602080880193509091019060005b8181101561104d57835183529284019291840191600101611031565b50909c9b505050505050505050505050565b6001600160a01b0391909116815260200190565b6000806040838503121561108657600080fd5b61108f83610f29565b9150602083013580151581146110a457600080fd5b809150509250929050565b600080600080600080600060e0888a0312156110ca57600080fd5b6110d388610f29565b96506110e160208901610f29565b95506040880135945060608801359350608088013560ff8116811461110557600080fd5b9699959850939692959460a0840135945060c09093013592915050565b6000806040838503121561113557600080fd5b61113e83610f29565b915061114c60208401610f29565b90509250929050565b600181811c9082168061116957607f821691505b60208210810361118957634e487b7160e01b600052602260045260246000fd5b50919050565b8082018082111561031b57634e487b7160e01b600052601160045260246000fd5b6001600160a01b039390931683526020830191909152604082015260600190565b634e487b7160e01b600052602160045260246000fdfea264697066735822122034584d3f14cfe1f32d87784b00374ea8177185843d54cdeee7dba62b2fefdb7164736f6c63430008190033",
  "linkReferences": {},
  "deployedLinkReferences": {}
}