{
  "_format": "hh-sol-artifact-1",
  "contractName": "PiratePool",
  "sourceName": "contracts/PiratePool.sol",
  "abi": [
    {
      "inputs": [],
      "stateMutability": "nonpayable",
      "type": "constructor"
    },
    {
      "inputs": [],
      "name": "ALREADY_INIT",
      "type": "error"
    },
    {
      "inputs": [],
      "name": "AMT_ZERO",
      "type": "error"
    },
    {
      "inputs": [
        {
          "internalType": "address",
          "name": "target",
          "type": "address"
        }
      ],
      "name": "AddressEmptyCode",
      "type": "error"
    },
    {
      "inputs": [
        {
          "internalType": "address",
          "name": "account",
          "type": "address"
        }
      ],
      "name": "AddressInsufficientBalance",
      "type": "error"
    },
    {
      "inputs": [],
      "name": "BAL_LOW",
      "type": "error"
    },
    {
      "inputs": [],
      "name": "FailedInnerCall",
      "type": "error"
    },
    {
      "inputs": [],
      "name": "NO_REWARD",
      "type": "error"
    },
    {
      "inputs": [
        {
          "internalType": "address",
          "name": "owner",
          "type": "address"
        }
      ],
      "name": "OwnableInvalidOwner",
      "type": "error"
    },
    {
      "inputs": [
        {
          "internalType": "address",
          "name": "account",
          "type": "address"
        }
      ],
      "name": "OwnableUnauthorizedAccount",
      "type": "error"
    },
    {
      "inputs": [],
      "name": "POOL_ACTIVE",
      "type": "error"
    },
    {
      "inputs": [],
      "name": "ReentrancyGuardReentrantCall",
      "type": "error"
    },
    {
      "inputs": [
        {
          "internalType": "address",
          "name": "token",
          "type": "address"
        }
      ],
      "name": "SafeERC20FailedOperation",
      "type": "error"
    },
    {
      "anonymous": false,
      "inputs": [
        {
          "indexed": true,
          "internalType": "address",
          "name": "user",
          "type": "address"
        },
        {
          "indexed": false,
          "internalType": "uint8",
          "name": "poolId",
          "type": "uint8"
        },
        {
          "indexed": false,
          "internalType": "uint256",
          "name": "reward",
          "type": "uint256"
        }
      ],
      "name": "Claimed",
      "type": "event"
    },
    {
      "anonymous": false,
      "inputs": [
        {
          "indexed": true,
          "internalType": "address",
          "name": "oldGameCore",
          "type": "address"
        },
        {
          "indexed": true,
          "internalType": "address",
          "name": "newGameCore",
          "type": "address"
        }
      ],
      "name": "GameCoreSet",
      "type": "event"
    },
    {
      "anonymous": false,
      "inputs": [
        {
          "indexed": true,
          "internalType": "address",
          "name": "previousOwner",
          "type": "address"
        },
        {
          "indexed": true,
          "internalType": "address",
          "name": "newOwner",
          "type": "address"
        }
      ],
      "name": "OwnershipTransferred",
      "type": "event"
    },
    {
      "anonymous": false,
      "inputs": [
        {
          "indexed": false,
          "internalType": "address",
          "name": "cargoToken",
          "type": "address"
        },
        {
          "indexed": false,
          "internalType": "address",
          "name": "fortToken",
          "type": "address"
        }
      ],
      "name": "PoolsInitialized",
      "type": "event"
    },
    {
      "anonymous": false,
      "inputs": [
        {
          "indexed": false,
          "internalType": "uint8",
          "name": "poolId",
          "type": "uint8"
        },
        {
          "indexed": false,
          "internalType": "uint256",
          "name": "jackpotPart",
          "type": "uint256"
        },
        {
          "indexed": false,
          "internalType": "uint256",
          "name": "burnPart",
          "type": "uint256"
        }
      ],
      "name": "Recycled",
      "type": "event"
    },
    {
      "anonymous": false,
      "inputs": [
        {
          "indexed": true,
          "internalType": "uint8",
          "name": "poolId",
          "type": "uint8"
        },
        {
          "indexed": true,
          "internalType": "uint256",
          "name": "amount",
          "type": "uint256"
        },
        {
          "indexed": true,
          "internalType": "address",
          "name": "from",
          "type": "address"
        }
      ],
      "name": "RewardDeposited",
      "type": "event"
    },
    {
      "anonymous": false,
      "inputs": [
        {
          "indexed": true,
          "internalType": "address",
          "name": "oldShipSBT",
          "type": "address"
        },
        {
          "indexed": true,
          "internalType": "address",
          "name": "newShipSBT",
          "type": "address"
        }
      ],
      "name": "ShipSBTSet",
      "type": "event"
    },
    {
      "anonymous": false,
      "inputs": [
        {
          "indexed": true,
          "internalType": "address",
          "name": "user",
          "type": "address"
        },
        {
          "indexed": false,
          "internalType": "uint8",
          "name": "poolId",
          "type": "uint8"
        },
        {
          "indexed": false,
          "internalType": "uint256",
          "name": "amount",
          "type": "uint256"
        }
      ],
      "name": "Staked",
      "type": "event"
    },
    {
      "anonymous": false,
      "inputs": [
        {
          "indexed": true,
          "internalType": "address",
          "name": "user",
          "type": "address"
        },
        {
          "indexed": false,
          "internalType": "uint8",
          "name": "poolId",
          "type": "uint8"
        },
        {
          "indexed": false,
          "internalType": "uint256",
          "name": "amount",
          "type": "uint256"
        }
      ],
      "name": "Unstaked",
      "type": "event"
    },
    {
      "inputs": [
        {
          "internalType": "uint8",
          "name": "pid",
          "type": "uint8"
        }
      ],
      "name": "claim",
      "outputs": [],
      "stateMutability": "nonpayable",
      "type": "function"
    },
    {
      "inputs": [
        {
          "internalType": "uint8",
          "name": "pid",
          "type": "uint8"
        },
        {
          "internalType": "uint256",
          "name": "amt",
          "type": "uint256"
        }
      ],
      "name": "depositReward",
      "outputs": [],
      "stateMutability": "nonpayable",
      "type": "function"
    },
    {
      "inputs": [
        {
          "internalType": "uint8",
          "name": "pid",
          "type": "uint8"
        }
      ],
      "name": "emergencyUnstake",
      "outputs": [],
      "stateMutability": "nonpayable",
      "type": "function"
    },
    {
      "inputs": [],
      "name": "gameCore",
      "outputs": [
        {
          "internalType": "address",
          "name": "",
          "type": "address"
        }
      ],
      "stateMutability": "view",
      "type": "function"
    },
    {
      "inputs": [
        {
          "internalType": "uint8",
          "name": "pid",
          "type": "uint8"
        }
      ],
      "name": "getPoolInfo",
      "outputs": [
        {
          "internalType": "address",
          "name": "token",
          "type": "address"
        },
        {
          "internalType": "uint256",
          "name": "totalStake",
          "type": "uint256"
        },
        {
          "internalType": "uint256",
          "name": "accPerShare",
          "type": "uint256"
        },
        {
          "internalType": "uint256",
          "name": "lastActiveBlock",
          "type": "uint256"
        }
      ],
      "stateMutability": "view",
      "type": "function"
    },
    {
      "inputs": [],
      "name": "getPoolsOverview",
      "outputs": [
        {
          "internalType": "uint256",
          "name": "cargoTotalStake",
          "type": "uint256"
        },
        {
          "internalType": "uint256",
          "name": "fortTotalStake",
          "type": "uint256"
        },
        {
          "internalType": "uint256",
          "name": "cargoAPR",
          "type": "uint256"
        },
        {
          "internalType": "uint256",
          "name": "fortAPR",
          "type": "uint256"
        }
      ],
      "stateMutability": "view",
      "type": "function"
    },
    {
      "inputs": [
        {
          "internalType": "uint8",
          "name": "pid",
          "type": "uint8"
        },
        {
          "internalType": "address",
          "name": "user",
          "type": "address"
        }
      ],
      "name": "getUserInfo",
      "outputs": [
        {
          "internalType": "uint256",
          "name": "stakeAmount",
          "type": "uint256"
        },
        {
          "internalType": "uint256",
          "name": "debt",
          "type": "uint256"
        },
        {
          "internalType": "uint256",
          "name": "pending",
          "type": "uint256"
        }
      ],
      "stateMutability": "view",
      "type": "function"
    },
    {
      "inputs": [
        {
          "internalType": "address",
          "name": "user",
          "type": "address"
        }
      ],
      "name": "getUserOverview",
      "outputs": [
        {
          "internalType": "uint256",
          "name": "cargoStaked",
          "type": "uint256"
        },
        {
          "internalType": "uint256",
          "name": "fortStaked",
          "type": "uint256"
        },
        {
          "internalType": "uint256",
          "name": "cargoPending",
          "type": "uint256"
        },
        {
          "internalType": "uint256",
          "name": "fortPending",
          "type": "uint256"
        }
      ],
      "stateMutability": "view",
      "type": "function"
    },
    {
      "inputs": [
        {
          "internalType": "address",
          "name": "cargo",
          "type": "address"
        },
        {
          "internalType": "address",
          "name": "fort",
          "type": "address"
        }
      ],
      "name": "initPools",
      "outputs": [],
      "stateMutability": "nonpayable",
      "type": "function"
    },
    {
      "inputs": [],
      "name": "owner",
      "outputs": [
        {
          "internalType": "address",
          "name": "",
          "type": "address"
        }
      ],
      "stateMutability": "view",
      "type": "function"
    },
    {
      "inputs": [
        {
          "internalType": "uint8",
          "name": "pid",
          "type": "uint8"
        },
        {
          "internalType": "address",
          "name": "user",
          "type": "address"
        }
      ],
      "name": "pendingReward",
      "outputs": [
        {
          "internalType": "uint256",
          "name": "",
          "type": "uint256"
        }
      ],
      "stateMutability": "view",
      "type": "function"
    },
    {
      "inputs": [
        {
          "internalType": "uint8",
          "name": "pid",
          "type": "uint8"
        }
      ],
      "name": "pokeInactivePool",
      "outputs": [],
      "stateMutability": "nonpayable",
      "type": "function"
    },
    {
      "inputs": [
        {
          "internalType": "uint8",
          "name": "faction",
          "type": "uint8"
        }
      ],
      "name": "poolStats",
      "outputs": [
        {
          "internalType": "uint256",
          "name": "totalStaked",
          "type": "uint256"
        },
        {
          "internalType": "uint256",
          "name": "accPerShare",
          "type": "uint256"
        },
        {
          "internalType": "uint256",
          "name": "pendingToday",
          "type": "uint256"
        }
      ],
      "stateMutability": "view",
      "type": "function"
    },
    {
      "inputs": [
        {
          "internalType": "uint8",
          "name": "",
          "type": "uint8"
        }
      ],
      "name": "pools",
      "outputs": [
        {
          "internalType": "contract IERC20",
          "name": "token",
          "type": "address"
        },
        {
          "internalType": "uint256",
          "name": "totalStake",
          "type": "uint256"
        },
        {
          "internalType": "uint256",
          "name": "accPerShare",
          "type": "uint256"
        },
        {
          "internalType": "uint256",
          "name": "lastActiveBlock",
          "type": "uint256"
        },
        {
          "internalType": "uint256",
          "name": "pendingDust",
          "type": "uint256"
        }
      ],
      "stateMutability": "view",
      "type": "function"
    },
    {
      "inputs": [
        {
          "internalType": "uint8",
          "name": "pid",
          "type": "uint8"
        },
        {
          "internalType": "address",
          "name": "jackpot",
          "type": "address"
        },
        {
          "internalType": "uint256",
          "name": "burnPct",
          "type": "uint256"
        }
      ],
      "name": "recycleIfIdle",
      "outputs": [],
      "stateMutability": "nonpayable",
      "type": "function"
    },
    {
      "inputs": [],
      "name": "renounceOwnership",
      "outputs": [],
      "stateMutability": "nonpayable",
      "type": "function"
    },
    {
      "inputs": [
        {
          "internalType": "address",
          "name": "_gameCore",
          "type": "address"
        }
      ],
      "name": "setGameCore",
      "outputs": [],
      "stateMutability": "nonpayable",
      "type": "function"
    },
    {
      "inputs": [
        {
          "internalType": "address",
          "name": "_shipSBT",
          "type": "address"
        }
      ],
      "name": "setShipSBT",
      "outputs": [],
      "stateMutability": "nonpayable",
      "type": "function"
    },
    {
      "inputs": [],
      "name": "shipSBT",
      "outputs": [
        {
          "internalType": "contract ShipSBT",
          "name": "",
          "type": "address"
        }
      ],
      "stateMutability": "view",
      "type": "function"
    },
    {
      "inputs": [
        {
          "internalType": "uint8",
          "name": "pid",
          "type": "uint8"
        },
        {
          "internalType": "uint256",
          "name": "amt",
          "type": "uint256"
        }
      ],
      "name": "stake",
      "outputs": [],
      "stateMutability": "nonpayable",
      "type": "function"
    },
    {
      "inputs": [
        {
          "internalType": "address",
          "name": "newOwner",
          "type": "address"
        }
      ],
      "name": "transferOwnership",
      "outputs": [],
      "stateMutability": "nonpayable",
      "type": "function"
    },
    {
      "inputs": [
        {
          "internalType": "uint8",
          "name": "pid",
          "type": "uint8"
        },
        {
          "internalType": "uint256",
          "name": "amt",
          "type": "uint256"
        }
      ],
      "name": "unstake",
      "outputs": [],
      "stateMutability": "nonpayable",
      "type": "function"
    },
    {
      "inputs": [
        {
          "internalType": "uint8",
          "name": "",
          "type": "uint8"
        },
        {
          "internalType": "address",
          "name": "",
          "type": "address"
        }
      ],
      "name": "userDebt",
      "outputs": [
        {
          "internalType": "uint256",
          "name": "",
          "type": "uint256"
        }
      ],
      "stateMutability": "view",
      "type": "function"
    },
    {
      "inputs": [
        {
          "internalType": "uint8",
          "name": "faction",
          "type": "uint8"
        },
        {
          "internalType": "address",
          "name": "user",
          "type": "address"
        }
      ],
      "name": "userInfo",
      "outputs": [
        {
          "internalType": "uint256",
          "name": "staked",
          "type": "uint256"
        },
        {
          "internalType": "uint256",
          "name": "pending",
          "type": "uint256"
        },
        {
          "internalType": "uint32",
          "name": "lastActive",
          "type": "uint32"
        }
      ],
      "stateMutability": "view",
      "type": "function"
    },
    {
      "inputs": [
        {
          "internalType": "uint8",
          "name": "",
          "type": "uint8"
        },
        {
          "internalType": "address",
          "name": "",
          "type": "address"
        }
      ],
      "name": "userStake",
      "outputs": [
        {
          "internalType": "uint256",
          "name": "",
          "type": "uint256"
        }
      ],
      "stateMutability": "view",
      "type": "function"
    }
  ],
  "bytecode": "0x6080604052348015600f57600080fd5b503380603557604051631e4fbdf760e01b81526000600482015260240160405180910390fd5b603c816045565b50600180556095565b600080546001600160a01b038381166001600160a01b0319831681178455604051919092169283917f8be0079c531659141344cd1fd0a4f28419497f9722a3daafe3b4186f6b6457e09190a35050565b611f09806100a46000396000f3fe608060405234801561001057600080fd5b50600436106101335760003560e01c806303b2e27c146101385780630514f8d11461014d57806327a6612c1461017657806329d79588146101895780633c96b83b146101b7578063552eec2f146101ca57806364b7ae0e146101fd5780636a443b55146102105780636f2ee84514610223578063715018a61461023657806376fa17d21461023e5780638da5cb5b146102725780638ea249241461027a57806395d4063f1461028d578063a2f1310f146102a0578063a48e3dfb146102a8578063b4545b9e146102e1578063be615335146102f4578063c0d7963114610307578063cadbcc6d14610332578063dd752e5514610345578063e2cfe2ef14610358578063ebdaae4a1461036b578063f2fde38b146103d6578063fb87a635146103e9575b600080fd5b61014b610146366004611b48565b610462565b005b600654610160906001600160a01b031681565b60405161016d9190611b84565b60405180910390f35b61014b610184366004611b98565b610656565b61019c610197366004611bcb565b610893565b6040805193845260208401929092529082015260600161016d565b61014b6101c5366004611be7565b6108ed565b6101dd6101d8366004611c11565b6109f7565b60408051948552602085019390935291830152606082015260800161016d565b61019c61020b366004611c2c565b610a7c565b61014b61021e366004611c11565b610aca565b61014b610231366004611c2c565b610b4a565b61014b610dd8565b61025161024c366004611bcb565b610dec565b60408051938452602084019290925263ffffffff169082015260600161016d565b610160610e68565b61014b610288366004611c2c565b610e77565b61014b61029b366004611c2c565b610f92565b6101dd6110e7565b6102d36102b6366004611bcb565b600460209081526000928352604080842090915290825290205481565b60405190815260200161016d565b61014b6102ef366004611be7565b61114a565b6102d3610302366004611bcb565b611397565b6102d3610315366004611bcb565b600360209081526000928352604080842090915290825290205481565b61014b610340366004611c11565b6113ac565b61014b610353366004611be7565b61142c565b600554610160906001600160a01b031681565b6103ac610379366004611c2c565b60ff16600090815260026020819052604090912080546001820154928201546003909201546001600160a01b0390911693565b604080516001600160a01b039095168552602085019390935291830152606082015260800161016d565b61014b6103e4366004611c11565b6115f3565b6104306103f7366004611c2c565b6002602081905260009182526040909120805460018201549282015460038301546004909301546001600160a01b039092169392909185565b604080516001600160a01b0390961686526020860194909452928401919091526060830152608082015260a00161016d565b61046a61162e565b610472611660565b60018360ff16111561049f5760405162461bcd60e51b815260040161049690611c47565b60405180910390fd5b60ff8316600090815260026020526040902060030154620d2f00906104c49043611c82565b10156104e357604051630b18626760e41b815260040160405180910390fd5b60ff83166000908152600260205260408082205490516370a0823160e01b81526001600160a01b03909116906370a0823190610523903090600401611b84565b602060405180830381865afa158015610540573d6000803e3d6000fd5b505050506040513d601f19601f820116820180604052508101906105649190611c95565b9050806000036105745750610648565b600060646105828484611cae565b61058c9190611cc5565b9050600061059a8284611c82565b905081156105cb5760ff86166000908152600260205260409020546105cb906001600160a01b031661dead8461168a565b80156105f85760ff86166000908152600260205260409020546105f8906001600160a01b0316868361168a565b60ff8616600090815260026020819052604080832091820183905560019091019190915551600080516020611e748339815191529061063c90889084908690611ce7565b60405180910390a15050505b61065160018055565b505050565b61065e61162e565b610666611660565b6001600160a01b0382161580159061068657506001600160a01b03811615155b6106a25760405162461bcd60e51b815260040161049690611d02565b600080526002602052600080516020611e54833981519152546001600160a01b0316156106e25760405163b2c6f10f60e01b815260040160405180910390fd5b60026020908152600080516020611e5483398151915280546001600160a01b038581166001600160a01b031992831681179093556000600080516020611e148339815191528190557fac33ff75c19e70fe83507db0d683fd3465c996598dc972688b7ace676c89077d81905563ffffffff43167fac33ff75c19e70fe83507db0d683fd3465c996598dc972688b7ace676c89077e8190557fac33ff75c19e70fe83507db0d683fd3465c996598dc972688b7ace676c89077f829055600182527fe90b7bceb6e7df5418fb78d8ee546e97c83a08bbccc01a0644d599ccd2a7c2e08054938816939094168317909355600080516020611e948339815191528190557fe90b7bceb6e7df5418fb78d8ee546e97c83a08bbccc01a0644d599ccd2a7c2e28190557fe90b7bceb6e7df5418fb78d8ee546e97c83a08bbccc01a0644d599ccd2a7c2e3929092557fe90b7bceb6e7df5418fb78d8ee546e97c83a08bbccc01a0644d599ccd2a7c2e49190915560408051928352928201527f821f8109eefb35d0cc9cc8117f09404633525b3e96d5e6ff817220d816984612910160405180910390a161088f60018055565b5050565b60ff821660008181526003602090815260408083206001600160a01b0386168085529083528184205494845260048352818420908452909152812054909182918291906108e087876116e9565b9250925092509250925092565b6005546001600160a01b031633146109375760405162461bcd60e51b815260206004820152600d60248201526c4e4f545f47414d455f434f524560981b6044820152606401610496565b60018260ff16111561095b5760405162461bcd60e51b815260040161049690611c47565b8060000361097c576040516396a1ca8560e01b815260040160405180910390fd5b60ff82166000908152600260205260409020546109a4906001600160a01b0316333084611792565b6109ae82826117d1565b60ff821660008181526002602052604080822043600390910155513392849290917f05515e5986afea2bc2d3625e3f7f6f8959db8579d28eafe7a9af1d426eac35e69190a45050565b6001600160a01b03811660009081527f3617319a054d772f909f7c479a2cebe5066e836a939412e32403c99029b92eff60209081526040808320547fa15bc60c955c405d20d9149c709e2460f1c2d9a497496a7f46004d1772c3054c909252822054909180610a6681866116e9565b9150610a736001866116e9565b90509193509193565b600080600060018460ff161115610aa55760405162461bcd60e51b815260040161049690611d25565b50505060ff166000908152600260208190526040822060018101549101549092909190565b610ad261162e565b6001600160a01b038116610af85760405162461bcd60e51b815260040161049690611d02565b600680546001600160a01b038381166001600160a01b0319831681179093556040519116919082907fd4cf85353884d26c843b40f71775f9b8063b767cf797894fce722f0bdf3611cf90600090a35050565b610b52611660565b60018160ff161115610b765760405162461bcd60e51b815260040161049690611c47565b60ff8116600090815260026020526040902060030154620d2f0090610b9b9043611c82565b11610bd65760405162461bcd60e51b815260206004820152600b60248201526a504f4f4c5f41435449564560a81b6044820152606401610496565b60ff81166000908152600260205260408082205490516370a0823160e01b81526001600160a01b03909116906370a0823190610c16903090600401611b84565b602060405180830381865afa158015610c33573d6000803e3d6000fd5b505050506040513d601f19601f82011682018060405250810190610c579190611c95565b905060008111610c965760405162461bcd60e51b815260206004820152600a6024820152694e4f5f42414c414e434560b01b6044820152606401610496565b6000612710610ca6606484611cae565b610cb09190611cc5565b60ff8416600090815260026020526040902054909150610cda906001600160a01b0316338361168a565b6000610ce68284611c82565b905060006064610cf7602884611cae565b610d019190611cc5565b90506000610d0f8284611c82565b90508115610d405760ff8616600090815260026020526040902054610d40906001600160a01b031661dead8461168a565b8015610d7457610d74610d51610e68565b60ff88166000908152600260205260409020546001600160a01b0316908361168a565b60ff861660009081526002602081905260408083209182018390556001820183905560049091019190915551600080516020611e7483398151915290610dbf90889084908690611ce7565b60405180910390a15050505050610dd560018055565b50565b610de061162e565b610dea60006118ff565b565b600080600060018560ff161115610e155760405162461bcd60e51b815260040161049690611d25565b60ff851660009081526003602090815260408083206001600160a01b03881684529091529020549250610e4885856116e9565b60ff90951660009081526002602052604090206003015492959293505050565b6000546001600160a01b031690565b610e7f611660565b60ff8116600090815260036020908152604080832033845290915290205480610ed55760405162461bcd60e51b81526020600482015260086024820152674e4f5f5354414b4560c01b6044820152606401610496565b60ff821660009081526002602052604081206001018054839290610efa908490611c82565b909155505060ff82166000818152600360209081526040808320338085529083528184208490558484526004835281842081855283528184208490559383526002909152902054610f57916001600160a01b03909116908361168a565b336001600160a01b0316600080516020611eb48339815191528383604051610f80929190611d4e565b60405180910390a250610dd560018055565b6006546001600160a01b0316610fba5760405162461bcd60e51b815260040161049690611d61565b610fc33361194f565b610fdf5760405162461bcd60e51b815260040161049690611d8b565b610fe7611660565b60018160ff16111561100b5760405162461bcd60e51b815260040161049690611c47565b600061101782336116e9565b9050806000036110395760405162b8335760e01b815260040160405180910390fd5b60ff8216600090815260026020526040902054611060906001600160a01b0316338361168a565b60ff821660009081526002602081815260408084209092015460038252828420338552909152912054670de0b6b3a76400009161109c91611cae565b6110a69190611cc5565b60ff83166000908152600460209081526040808320338085529252918290209290925551600080516020611e3483398151915290610f809085908590611d4e565b6002602052600080516020611e148339815191525460016000908152600080516020611e9483398151915254908083611121576000611125565b6103e85b61ffff1691506000831161113a57600061113e565b6103e85b61ffff16905090919293565b6006546001600160a01b03166111725760405162461bcd60e51b815260040161049690611d61565b61117b3361194f565b6111975760405162461bcd60e51b815260040161049690611d8b565b61119f611660565b60018260ff1611156111c35760405162461bcd60e51b815260040161049690611c47565b60ff821660009081526003602090815260408083203384529091529020548111156112015760405163c1dac15b60e01b815260040160405180910390fd5b600061120d83336116e9565b9050801561126e5760ff831660009081526002602052604090205461123c906001600160a01b0316338361168a565b336001600160a01b0316600080516020611e348339815191528483604051611265929190611d4e565b60405180910390a25b81156113295760ff83166000908152600360209081526040808320338452909152812080548492906112a1908490611c82565b909155505060ff8316600090815260026020526040812060010180548492906112cb908490611c82565b909155505060ff83166000908152600260205260409020546112f7906001600160a01b0316338461168a565b336001600160a01b0316600080516020611eb48339815191528484604051611320929190611d4e565b60405180910390a25b60ff831660009081526002602081815260408084209092015460038252828420338552909152912054670de0b6b3a76400009161136591611cae565b61136f9190611cc5565b60ff841660009081526004602090815260408083203384529091529020555061088f60018055565b60006113a383836116e9565b90505b92915050565b6113b461162e565b6001600160a01b0381166113da5760405162461bcd60e51b815260040161049690611d02565b600580546001600160a01b038381166001600160a01b0319831681179093556040519116919082907fc7783e58fde2af2cd7e00dc67950715bd213e7ff74117b502dacdf5778c9267690600090a35050565b6006546001600160a01b03166114545760405162461bcd60e51b815260040161049690611d61565b61145d3361194f565b6114795760405162461bcd60e51b815260040161049690611d8b565b611481611660565b60018260ff1611156114a55760405162461bcd60e51b815260040161049690611c47565b80156115495760ff82166000908152600260205260409020546114d3906001600160a01b0316333084611792565b60ff8216600090815260036020908152604080832033845290915281208054839290611500908490611daf565b909155505060ff82166000908152600260205260408120600101805483929061152a908490611daf565b909155505060ff82166000908152600260205260409020436003909101555b60ff821660009081526002602081815260408084209092015460038252828420338552909152912054670de0b6b3a76400009161158591611cae565b61158f9190611cc5565b60ff831660009081526004602090815260408083203380855292529182902092909255517f3cf14181ae25669a913d72411736fc5c01f538fa503e963b0b2e56bcefb3edaf906115e29085908590611d4e565b60405180910390a261088f60018055565b6115fb61162e565b6001600160a01b038116611625576000604051631e4fbdf760e01b81526004016104969190611b84565b610dd5816118ff565b33611637610e68565b6001600160a01b031614610dea573360405163118cdaa760e01b81526004016104969190611b84565b60026001540361168357604051633ee5aeb560e01b815260040160405180910390fd5b6002600155565b6040516001600160a01b0383811660248301526044820183905261065191859182169063a9059cbb906064015b604051602081830303815290604052915060e01b6020820180516001600160e01b0383818316178352505050506119c1565b60ff821660009081526003602090815260408083206001600160a01b03851684529091528120548082036117215760009150506113a6565b60ff8416600090815260026020819052604082200154670de0b6b3a76400009061174b9084611cae565b6117559190611cc5565b60ff861660009081526004602090815260408083206001600160a01b03891684529091529020549091506117899082611c82565b95945050505050565b6040516001600160a01b0384811660248301528381166044830152606482018390526117cb9186918216906323b872dd906084016116b7565b50505050565b60ff8216600090815260026020526040902060010154156118d15760ff821660009081526002602052604081206004015461180c9083611daf565b60ff841660009081526002602052604081206001015491925090611838670de0b6b3a764000084611cae565b6118429190611cc5565b905080600260008660ff1660ff16815260200190815260200160002060020160008282546118709190611daf565b909155505060ff8416600090815260026020526040902060010154670de0b6b3a76400009061189f9083611cae565b6118a99190611cc5565b6118b39083611c82565b60ff85166000908152600260205260409020600401555061088f9050565b60ff8216600090815260026020526040812060040180548392906118f6908490611daf565b90915550505050565b600080546001600160a01b038381166001600160a01b0319831681178455604051919092169283917f8be0079c531659141344cd1fd0a4f28419497f9722a3daafe3b4186f6b6457e09190a35050565b600654604051631dd6410560e31b81526000916001600160a01b03169063eeb2082890611980908590600401611b84565b602060405180830381865afa15801561199d573d6000803e3d6000fd5b505050506040513d601f19601f820116820180604052508101906113a69190611dc2565b60006119d66001600160a01b03841683611a1b565b905080516000141580156119fb5750808060200190518101906119f99190611dc2565b155b156106515782604051635274afe760e01b81526004016104969190611b84565b60606113a38383600084600080856001600160a01b03168486604051611a419190611de4565b60006040518083038185875af1925050503d8060008114611a7e576040519150601f19603f3d011682016040523d82523d6000602084013e611a83565b606091505b5091509150611a93868383611a9f565b925050505b9392505050565b606082611ab457611aaf82611af2565b611a98565b8151158015611acb57506001600160a01b0384163b155b15611aeb5783604051639996b31560e01b81526004016104969190611b84565b5080611a98565b805115611b025780518082602001fd5b604051630a12f52160e11b815260040160405180910390fd5b803560ff81168114611b2c57600080fd5b919050565b80356001600160a01b0381168114611b2c57600080fd5b600080600060608486031215611b5d57600080fd5b611b6684611b1b565b9250611b7460208501611b31565b9150604084013590509250925092565b6001600160a01b0391909116815260200190565b60008060408385031215611bab57600080fd5b611bb483611b31565b9150611bc260208401611b31565b90509250929050565b60008060408385031215611bde57600080fd5b611bb483611b1b565b60008060408385031215611bfa57600080fd5b611c0383611b1b565b946020939093013593505050565b600060208284031215611c2357600080fd5b6113a382611b31565b600060208284031215611c3e57600080fd5b6113a382611b1b565b6020808252600b908201526a1253959053125117d4125160aa1b604082015260600190565b634e487b7160e01b600052601160045260246000fd5b818103818111156113a6576113a6611c6c565b600060208284031215611ca757600080fd5b5051919050565b80820281158282048414176113a6576113a6611c6c565b600082611ce257634e487b7160e01b600052601260045260246000fd5b500490565b60ff9390931683526020830191909152604082015260600190565b6020808252600990820152682d22a927afa0a2222960b91b604082015260600190565b6020808252600f908201526e24a72b20a624a22fa320a1aa24a7a760891b604082015260600190565b60ff929092168252602082015260400190565b60208082526010908201526f14d2125417d4d09517d393d517d4d15560821b604082015260600190565b6020808252600a90820152694e4f545f50495241544560b01b604082015260600190565b808201808211156113a6576113a6611c6c565b600060208284031215611dd457600080fd5b81518015158114611a9857600080fd5b6000825160005b81811015611e055760208186018101518583015201611deb565b50600092019182525091905056feac33ff75c19e70fe83507db0d683fd3465c996598dc972688b7ace676c89077cc73092756e22756fd0b15b2f803bd49db35ee23e7ae171c4d414ab7a61fa8b7cac33ff75c19e70fe83507db0d683fd3465c996598dc972688b7ace676c89077b0fb59c5213ba16d89f12517991f319faec7740b4a80ff796dec25afbec959585e90b7bceb6e7df5418fb78d8ee546e97c83a08bbccc01a0644d599ccd2a7c2e19bda9a567fe5ce9bcfb637505de9a1dc9d112a34e25a8524026e3d869f95b471a2646970667358221220b633ef3d8ea9848935102bf7379b0b0a09e5d7ec8b80605b7de1498f0295144864736f6c63430008190033",
  "linkReferences": {},
  "deployedLinkReferences": {}
}