{
  "_format": "hh-sol-artifact-1",
  "contractName": "ShipSBT",
  "sourceName": "contracts/ShipSBT.sol",
  "abi": [
    {
      "inputs": [],
      "stateMutability": "nonpayable",
      "type": "constructor"
    },
    {
      "inputs": [
        {
          "internalType": "address",
          "name": "sender",
          "type": "address"
        },
        {
          "internalType": "uint256",
          "name": "tokenId",
          "type": "uint256"
        },
        {
          "internalType": "address",
          "name": "owner",
          "type": "address"
        }
      ],
      "name": "ERC721IncorrectOwner",
      "type": "error"
    },
    {
      "inputs": [
        {
          "internalType": "address",
          "name": "operator",
          "type": "address"
        },
        {
          "internalType": "uint256",
          "name": "tokenId",
          "type": "uint256"
        }
      ],
      "name": "ERC721InsufficientApproval",
      "type": "error"
    },
    {
      "inputs": [
        {
          "internalType": "address",
          "name": "approver",
          "type": "address"
        }
      ],
      "name": "ERC721InvalidApprover",
      "type": "error"
    },
    {
      "inputs": [
        {
          "internalType": "address",
          "name": "operator",
          "type": "address"
        }
      ],
      "name": "ERC721InvalidOperator",
      "type": "error"
    },
    {
      "inputs": [
        {
          "internalType": "address",
          "name": "owner",
          "type": "address"
        }
      ],
      "name": "ERC721InvalidOwner",
      "type": "error"
    },
    {
      "inputs": [
        {
          "internalType": "address",
          "name": "receiver",
          "type": "address"
        }
      ],
      "name": "ERC721InvalidReceiver",
      "type": "error"
    },
    {
      "inputs": [
        {
          "internalType": "address",
          "name": "sender",
          "type": "address"
        }
      ],
      "name": "ERC721InvalidSender",
      "type": "error"
    },
    {
      "inputs": [
        {
          "internalType": "uint256",
          "name": "tokenId",
          "type": "uint256"
        }
      ],
      "name": "ERC721NonexistentToken",
      "type": "error"
    },
    {
      "inputs": [],
      "name": "INVALID_FACTION",
      "type": "error"
    },
    {
      "inputs": [
        {
          "internalType": "uint8",
          "name": "level",
          "type": "uint8"
        }
      ],
      "name": "LV_OUT_OF_RANGE",
      "type": "error"
    },
    {
      "inputs": [],
      "name": "NOT_GAME_CORE",
      "type": "error"
    },
    {
      "inputs": [
        {
          "internalType": "address",
          "name": "owner",
          "type": "address"
        }
      ],
      "name": "OwnableInvalidOwner",
      "type": "error"
    },
    {
      "inputs": [
        {
          "internalType": "address",
          "name": "account",
          "type": "address"
        }
      ],
      "name": "OwnableUnauthorizedAccount",
      "type": "error"
    },
    {
      "inputs": [],
      "name": "PIRATE_OP",
      "type": "error"
    },
    {
      "inputs": [],
      "name": "ReentrancyGuardReentrantCall",
      "type": "error"
    },
    {
      "inputs": [],
      "name": "TOKEN_NOT_EXISTS",
      "type": "error"
    },
    {
      "inputs": [],
      "name": "ZERO_ADDR",
      "type": "error"
    },
    {
      "anonymous": false,
      "inputs": [
        {
          "indexed": true,
          "internalType": "address",
          "name": "owner",
          "type": "address"
        },
        {
          "indexed": true,
          "internalType": "address",
          "name": "approved",
          "type": "address"
        },
        {
          "indexed": true,
          "internalType": "uint256",
          "name": "tokenId",
          "type": "uint256"
        }
      ],
      "name": "Approval",
      "type": "event"
    },
    {
      "anonymous": false,
      "inputs": [
        {
          "indexed": true,
          "internalType": "address",
          "name": "owner",
          "type": "address"
        },
        {
          "indexed": true,
          "internalType": "address",
          "name": "operator",
          "type": "address"
        },
        {
          "indexed": false,
          "internalType": "bool",
          "name": "approved",
          "type": "bool"
        }
      ],
      "name": "ApprovalForAll",
      "type": "event"
    },
    {
      "anonymous": false,
      "inputs": [
        {
          "indexed": false,
          "internalType": "uint256",
          "name": "_fromTokenId",
          "type": "uint256"
        },
        {
          "indexed": false,
          "internalType": "uint256",
          "name": "_toTokenId",
          "type": "uint256"
        }
      ],
      "name": "BatchMetadataUpdate",
      "type": "event"
    },
    {
      "anonymous": false,
      "inputs": [
        {
          "indexed": false,
          "internalType": "uint256",
          "name": "_tokenId",
          "type": "uint256"
        }
      ],
      "name": "MetadataUpdate",
      "type": "event"
    },
    {
      "anonymous": false,
      "inputs": [
        {
          "indexed": true,
          "internalType": "address",
          "name": "previousOwner",
          "type": "address"
        },
        {
          "indexed": true,
          "internalType": "address",
          "name": "newOwner",
          "type": "address"
        }
      ],
      "name": "OwnershipTransferred",
      "type": "event"
    },
    {
      "anonymous": false,
      "inputs": [
        {
          "indexed": true,
          "internalType": "address",
          "name": "to",
          "type": "address"
        },
        {
          "indexed": true,
          "internalType": "uint256",
          "name": "tokenId",
          "type": "uint256"
        },
        {
          "indexed": false,
          "internalType": "uint8",
          "name": "level",
          "type": "uint8"
        }
      ],
      "name": "ShipMinted",
      "type": "event"
    },
    {
      "anonymous": false,
      "inputs": [
        {
          "indexed": true,
          "internalType": "uint256",
          "name": "tokenId",
          "type": "uint256"
        },
        {
          "indexed": false,
          "internalType": "uint8",
          "name": "newLevel",
          "type": "uint8"
        }
      ],
      "name": "ShipUpgraded",
      "type": "event"
    },
    {
      "anonymous": false,
      "inputs": [
        {
          "indexed": true,
          "internalType": "address",
          "name": "from",
          "type": "address"
        },
        {
          "indexed": true,
          "internalType": "address",
          "name": "to",
          "type": "address"
        },
        {
          "indexed": true,
          "internalType": "uint256",
          "name": "tokenId",
          "type": "uint256"
        }
      ],
      "name": "Transfer",
      "type": "event"
    },
    {
      "inputs": [],
      "name": "FACTION_CARGO",
      "outputs": [
        {
          "internalType": "uint8",
          "name": "",
          "type": "uint8"
        }
      ],
      "stateMutability": "view",
      "type": "function"
    },
    {
      "inputs": [],
      "name": "FACTION_FORT",
      "outputs": [
        {
          "internalType": "uint8",
          "name": "",
          "type": "uint8"
        }
      ],
      "stateMutability": "view",
      "type": "function"
    },
    {
      "inputs": [],
      "name": "FACTION_PIRATE",
      "outputs": [
        {
          "internalType": "uint8",
          "name": "",
          "type": "uint8"
        }
      ],
      "stateMutability": "view",
      "type": "function"
    },
    {
      "inputs": [],
      "name": "MAX_LEVEL",
      "outputs": [
        {
          "internalType": "uint8",
          "name": "",
          "type": "uint8"
        }
      ],
      "stateMutability": "view",
      "type": "function"
    },
    {
      "inputs": [
        {
          "internalType": "address",
          "name": "",
          "type": "address"
        },
        {
          "internalType": "uint256",
          "name": "",
          "type": "uint256"
        }
      ],
      "name": "approve",
      "outputs": [],
      "stateMutability": "pure",
      "type": "function"
    },
    {
      "inputs": [
        {
          "internalType": "address",
          "name": "owner",
          "type": "address"
        }
      ],
      "name": "balanceOf",
      "outputs": [
        {
          "internalType": "uint256",
          "name": "",
          "type": "uint256"
        }
      ],
      "stateMutability": "view",
      "type": "function"
    },
    {
      "inputs": [
        {
          "internalType": "uint256",
          "name": "tokenId",
          "type": "uint256"
        }
      ],
      "name": "burn",
      "outputs": [],
      "stateMutability": "nonpayable",
      "type": "function"
    },
    {
      "inputs": [
        {
          "internalType": "uint256",
          "name": "",
          "type": "uint256"
        }
      ],
      "name": "factionOf",
      "outputs": [
        {
          "internalType": "uint8",
          "name": "",
          "type": "uint8"
        }
      ],
      "stateMutability": "view",
      "type": "function"
    },
    {
      "inputs": [],
      "name": "gameCore",
      "outputs": [
        {
          "internalType": "address",
          "name": "",
          "type": "address"
        }
      ],
      "stateMutability": "view",
      "type": "function"
    },
    {
      "inputs": [
        {
          "internalType": "uint256",
          "name": "tokenId",
          "type": "uint256"
        }
      ],
      "name": "getApproved",
      "outputs": [
        {
          "internalType": "address",
          "name": "",
          "type": "address"
        }
      ],
      "stateMutability": "view",
      "type": "function"
    },
    {
      "inputs": [
        {
          "internalType": "address",
          "name": "user",
          "type": "address"
        }
      ],
      "name": "hasPirate",
      "outputs": [
        {
          "internalType": "bool",
          "name": "",
          "type": "bool"
        }
      ],
      "stateMutability": "view",
      "type": "function"
    },
    {
      "inputs": [
        {
          "internalType": "address",
          "name": "owner",
          "type": "address"
        },
        {
          "internalType": "address",
          "name": "operator",
          "type": "address"
        }
      ],
      "name": "isApprovedForAll",
      "outputs": [
        {
          "internalType": "bool",
          "name": "",
          "type": "bool"
        }
      ],
      "stateMutability": "view",
      "type": "function"
    },
    {
      "inputs": [
        {
          "internalType": "uint256",
          "name": "",
          "type": "uint256"
        }
      ],
      "name": "levelOf",
      "outputs": [
        {
          "internalType": "uint8",
          "name": "",
          "type": "uint8"
        }
      ],
      "stateMutability": "view",
      "type": "function"
    },
    {
      "inputs": [
        {
          "internalType": "address",
          "name": "to",
          "type": "address"
        },
        {
          "internalType": "uint8",
          "name": "lv",
          "type": "uint8"
        }
      ],
      "name": "mint",
      "outputs": [
        {
          "internalType": "uint256",
          "name": "",
          "type": "uint256"
        }
      ],
      "stateMutability": "nonpayable",
      "type": "function"
    },
    {
      "inputs": [
        {
          "internalType": "address",
          "name": "to",
          "type": "address"
        },
        {
          "internalType": "uint8",
          "name": "lv",
          "type": "uint8"
        },
        {
          "internalType": "uint8",
          "name": "faction",
          "type": "uint8"
        },
        {
          "internalType": "bool",
          "name": "",
          "type": "bool"
        }
      ],
      "name": "mintWithFaction",
      "outputs": [
        {
          "internalType": "uint256",
          "name": "",
          "type": "uint256"
        }
      ],
      "stateMutability": "nonpayable",
      "type": "function"
    },
    {
      "inputs": [],
      "name": "name",
      "outputs": [
        {
          "internalType": "string",
          "name": "",
          "type": "string"
        }
      ],
      "stateMutability": "view",
      "type": "function"
    },
    {
      "inputs": [],
      "name": "nextTokenId",
      "outputs": [
        {
          "internalType": "uint256",
          "name": "",
          "type": "uint256"
        }
      ],
      "stateMutability": "view",
      "type": "function"
    },
    {
      "inputs": [],
      "name": "owner",
      "outputs": [
        {
          "internalType": "address",
          "name": "",
          "type": "address"
        }
      ],
      "stateMutability": "view",
      "type": "function"
    },
    {
      "inputs": [
        {
          "internalType": "uint256",
          "name": "tokenId",
          "type": "uint256"
        }
      ],
      "name": "ownerOf",
      "outputs": [
        {
          "internalType": "address",
          "name": "",
          "type": "address"
        }
      ],
      "stateMutability": "view",
      "type": "function"
    },
    {
      "inputs": [
        {
          "internalType": "address",
          "name": "",
          "type": "address"
        }
      ],
      "name": "pirateBalance",
      "outputs": [
        {
          "internalType": "uint256",
          "name": "",
          "type": "uint256"
        }
      ],
      "stateMutability": "view",
      "type": "function"
    },
    {
      "inputs": [],
      "name": "renounceOwnership",
      "outputs": [],
      "stateMutability": "nonpayable",
      "type": "function"
    },
    {
      "inputs": [
        {
          "internalType": "address",
          "name": "from",
          "type": "address"
        },
        {
          "internalType": "address",
          "name": "to",
          "type": "address"
        },
        {
          "internalType": "uint256",
          "name": "tokenId",
          "type": "uint256"
        }
      ],
      "name": "safeTransferFrom",
      "outputs": [],
      "stateMutability": "nonpayable",
      "type": "function"
    },
    {
      "inputs": [
        {
          "internalType": "address",
          "name": "from",
          "type": "address"
        },
        {
          "internalType": "address",
          "name": "to",
          "type": "address"
        },
        {
          "internalType": "uint256",
          "name": "tokenId",
          "type": "uint256"
        },
        {
          "internalType": "bytes",
          "name": "data",
          "type": "bytes"
        }
      ],
      "name": "safeTransferFrom",
      "outputs": [],
      "stateMutability": "nonpayable",
      "type": "function"
    },
    {
      "inputs": [
        {
          "internalType": "address",
          "name": "",
          "type": "address"
        },
        {
          "internalType": "bool",
          "name": "",
          "type": "bool"
        }
      ],
      "name": "setApprovalForAll",
      "outputs": [],
      "stateMutability": "pure",
      "type": "function"
    },
    {
      "inputs": [
        {
          "internalType": "uint256",
          "name": "tokenId",
          "type": "uint256"
        },
        {
          "internalType": "uint8",
          "name": "faction",
          "type": "uint8"
        }
      ],
      "name": "setFaction",
      "outputs": [],
      "stateMutability": "nonpayable",
      "type": "function"
    },
    {
      "inputs": [
        {
          "internalType": "address",
          "name": "_gameCore",
          "type": "address"
        }
      ],
      "name": "setGameCore",
      "outputs": [],
      "stateMutability": "nonpayable",
      "type": "function"
    },
    {
      "inputs": [
        {
          "internalType": "address",
          "name": "owner",
          "type": "address"
        },
        {
          "internalType": "uint256",
          "name": "maxTokenId",
          "type": "uint256"
        }
      ],
      "name": "shipsOfOwner",
      "outputs": [
        {
          "internalType": "uint256[]",
          "name": "ids",
          "type": "uint256[]"
        }
      ],
      "stateMutability": "view",
      "type": "function"
    },
    {
      "inputs": [
        {
          "internalType": "bytes4",
          "name": "interfaceId",
          "type": "bytes4"
        }
      ],
      "name": "supportsInterface",
      "outputs": [
        {
          "internalType": "bool",
          "name": "",
          "type": "bool"
        }
      ],
      "stateMutability": "view",
      "type": "function"
    },
    {
      "inputs": [],
      "name": "symbol",
      "outputs": [
        {
          "internalType": "string",
          "name": "",
          "type": "string"
        }
      ],
      "stateMutability": "view",
      "type": "function"
    },
    {
      "inputs": [
        {
          "internalType": "uint256",
          "name": "tokenId",
          "type": "uint256"
        }
      ],
      "name": "tokenURI",
      "outputs": [
        {
          "internalType": "string",
          "name": "",
          "type": "string"
        }
      ],
      "stateMutability": "view",
      "type": "function"
    },
    {
      "inputs": [
        {
          "internalType": "address",
          "name": "from",
          "type": "address"
        },
        {
          "internalType": "address",
          "name": "to",
          "type": "address"
        },
        {
          "internalType": "uint256",
          "name": "tokenId",
          "type": "uint256"
        }
      ],
      "name": "transferFrom",
      "outputs": [],
      "stateMutability": "nonpayable",
      "type": "function"
    },
    {
      "inputs": [
        {
          "internalType": "address",
          "name": "newOwner",
          "type": "address"
        }
      ],
      "name": "transferOwnership",
      "outputs": [],
      "stateMutability": "nonpayable",
      "type": "function"
    },
    {
      "inputs": [
        {
          "internalType": "uint256",
          "name": "tokenId",
          "type": "uint256"
        }
      ],
      "name": "upgrade",
      "outputs": [],
      "stateMutability": "nonpayable",
      "type": "function"
    }
  ],
  "bytecode": "0x608060405234801561001057600080fd5b50336040518060400160405280600f81526020016e0436172676f20466f7274205368697608c1b8152506040518060400160405280600381526020016243465360e81b815250816000908161006591906101af565b50600161007282826101af565b5050506001600160a01b0381166100a357604051631e4fbdf760e01b81526000600482015260240160405180910390fd5b6100ac816100bc565b5060016008819055600a5561026e565b600780546001600160a01b038381166001600160a01b0319831681179093556040519116919082907f8be0079c531659141344cd1fd0a4f28419497f9722a3daafe3b4186f6b6457e090600090a35050565b634e487b7160e01b600052604160045260246000fd5b600181811c9082168061013857607f821691505b60208210810361015857634e487b7160e01b600052602260045260246000fd5b50919050565b601f8211156101aa576000816000526020600020601f850160051c810160208610156101875750805b601f850160051c820191505b818110156101a657828155600101610193565b5050505b505050565b81516001600160401b038111156101c8576101c861010e565b6101dc816101d68454610124565b8461015e565b602080601f83116001811461021157600084156101f95750858301515b600019600386901b1c1916600185901b1785556101a6565b600085815260208120601f198616915b8281101561024057888601518255948401946001909101908401610221565b508582101561025e5787850151600019600388901b60f8161c191681555b5050505050600190811b01905550565b611fff8061027d6000396000f3fe608060405234801561001057600080fd5b506004361061018b5760003560e01c806301ffc9a71461019057806306fdde03146101b8578063081812fc146101cd578063095ea7b3146101ed57806323b872dd1461020257806342842e0e1461021557806342966c681461022857806345977d031461023b5780634ca8a2641461024e5780634f28932914610263578063540d11be1461026b5780636352211e1461028e578063691562a0146102a15780636d5e3032146102c257806370a08231146102e5578063715018a6146102f857806371dce28c1461030057806375794a3c1461031357806383af6b9e1461031c5780638da5cb5b1461032457806395d89b411461032c578063a22cb46514610334578063a49062d414610342578063a69e24401461034a578063b88d4fde1461035d578063c87b56dd14610370578063cadbcc6d14610383578063db280bd914610396578063e2cfe2ef146103b6578063e985e9c5146103c9578063eac8adbe146103dc578063eeb20828146103fc578063f2fde38b14610427575b600080fd5b6101a361019e3660046118e1565b61043a565b60405190151581526020015b60405180910390f35b6101c0610465565b6040516101af919061194e565b6101e06101db366004611961565b6104f7565b6040516101af919061197a565b6102006101fb3660046119aa565b61050c565b005b6102006102103660046119d4565b610551565b6102006102233660046119d4565b6105dc565b610200610236366004611961565b6105fc565b610200610249366004611961565b6106f4565b610256600081565b6040516101af9190611a10565b610256600281565b610256610279366004611961565b600c6020526000908152604090205460ff1681565b6101e061029c366004611961565b610884565b6102b46102af366004611a2f565b61088f565b6040519081526020016101af565b6102566102d0366004611961565b600b6020526000908152604090205460ff1681565b6102b46102f3366004611a62565b61094e565b610200610996565b61020061030e366004611a7d565b6109aa565b6102b4600a5481565b610256600181565b6101e0610a5c565b6101c0610a6b565b6102006101fb366004611ab0565b610256600581565b6102b4610358366004611ada565b610a7a565b61020061036b366004611b44565b610bf8565b6101c061037e366004611961565b610c0f565b610200610391366004611a62565b610d20565b6103a96103a43660046119aa565b610d70565b6040516101af9190611c1f565b6009546101e0906001600160a01b031681565b6101a36103d7366004611c63565b610ef4565b6102b46103ea366004611a62565b600d6020526000908152604090205481565b6101a361040a366004611a62565b6001600160a01b03166000908152600d6020526040902054151590565b610200610435366004611a62565b610f22565b60006001600160e01b03198216632483248360e11b148061045f575061045f82610f5d565b92915050565b60606000805461047490611c8d565b80601f01602080910402602001604051908101604052809291908181526020018280546104a090611c8d565b80156104ed5780601f106104c2576101008083540402835291602001916104ed565b820191906000526020600020905b8154815290600101906020018083116104d057829003601f168201915b5050505050905090565b600061050282610fad565b5061045f82610fe5565b60405162461bcd60e51b815260206004820152601560248201527414d09517d054141493d5905317d11254d050931151605a1b60448201526064015b60405180910390fd5b6001600160a01b03821661057b576000604051633250574960e11b8152600401610548919061197a565b6000610588838333611000565b9050836001600160a01b0316816001600160a01b0316146105d6576040516364283d7b60e01b81526001600160a01b0380861660048301526024820184905282166044820152606401610548565b50505050565b6105f783838360405180602001604052806000815250610bf8565b505050565b610604611082565b6009546001600160a01b0316331461062f57604051633f2387a560e21b815260040160405180910390fd5b600061063a826110ac565b6001600160a01b03160361066157604051639f8469cf60e01b815260040160405180910390fd5b600061066c826110ac565b6000838152600c602081815260408084208054600b845291909420805460ff1990811690915592909152825490911690915590915060ff1660011981016106dc576001600160a01b0382166000908152600d602052604081208054600192906106d6908490611cdd565b90915550505b6106e5836110c7565b50506106f16001600855565b50565b6106fc611082565b6009546001600160a01b0316331461072757604051633f2387a560e21b815260040160405180910390fd5b6000610732826110ac565b6001600160a01b03160361075957604051639f8469cf60e01b815260040160405180910390fd5b6000818152600c602052604090205460ff16600119016107af5760405162461bcd60e51b81526020600482015260116024820152705049524154455f4e4f5f5550475241444560781b6044820152606401610548565b6000818152600b602052604090205460ff16600581106107fa5760405162461bcd60e51b815260206004820152600660248201526526a0ac2fa62b60d11b6044820152606401610548565b610805816001611cf0565b6000838152600b60205260409020805460ff191660ff929092169190911790556108378261083281611102565b611192565b817fe9e11a8c421667d864abde7bb7931112bb0a9adc305eaf893997d59e50576e79610864836001611cf0565b6040516108719190611a10565b60405180910390a2506106f16001600855565b600061045f82610fad565b60006108996111e2565b60018260ff1610806108ae575060058260ff16115b156108ce578160405163cde6fbd360e01b81526004016105489190611a10565b600a8054600091826108df83611d09565b909155506000818152600b60205260409020805460ff191660ff8616179055905061090a8482611214565b610917816108328561122e565b80846001600160a01b0316600080516020611f688339815191528560405161093f9190611a10565b60405180910390a39392505050565b60006001600160a01b03821661097a5760006040516322718ad960e21b8152600401610548919061197a565b506001600160a01b031660009081526003602052604090205490565b61099e6111e2565b6109a8600061124f565b565b6109b2611082565b6009546001600160a01b031633146109dd57604051633f2387a560e21b815260040160405180910390fd5b60006109e8836110ac565b6001600160a01b031603610a0f57604051639f8469cf60e01b815260040160405180910390fd5b60018160ff161115610a3457604051633ef3c08b60e11b815260040160405180910390fd5b6000828152600c60205260409020805460ff191660ff831617905560016008555050565b5050565b6007546001600160a01b031690565b60606001805461047490611c8d565b6009546000906001600160a01b03163314610aa857604051633f2387a560e21b815260040160405180910390fd5b60018460ff161080610abd575060058460ff16115b15610add578360405163cde6fbd360e01b81526004016105489190611a10565b600260ff84161115610b235760405162461bcd60e51b815260206004820152600f60248201526e24a72b20a624a22fa320a1aa24a7a760891b6044820152606401610548565b600a805460009182610b3483611d09565b909155506000818152600b60209081526040808320805460ff808c1660ff1992831617909255600c90935292208054928816929091168217905590915060011901610ba8576001600160a01b0386166000908152600d60205260408120805460019290610ba2908490611d22565b90915550505b610bb28682611214565b610bbf8161083283611102565b80866001600160a01b0316600080516020611f6883398151915287604051610be79190611a10565b60405180910390a395945050505050565b610c03848484610551565b6105d6848484846112a1565b6060610c1a82610fad565b5060008281526006602052604081208054610c3490611c8d565b80601f0160208091040260200160405190810160405280929190818152602001828054610c6090611c8d565b8015610cad5780601f10610c8257610100808354040283529160200191610cad565b820191906000526020600020905b815481529060010190602001808311610c9057829003601f168201915b505050505090506000610ccb60408051602081019091526000815290565b90508051600003610cdd575092915050565b815115610d0f578082604051602001610cf7929190611d35565b60405160208183030381529060405292505050919050565b610d18846113b8565b949350505050565b610d286111e2565b6001600160a01b038116610d4e5760405162c6e62160e71b815260040160405180910390fd5b600980546001600160a01b0319166001600160a01b0392909216919091179055565b60606000610d7d8461094e565b905080600003610d9d57505060408051600081526020810190915261045f565b6000816001600160401b03811115610db757610db7611b2e565b604051908082528060200260200182016040528015610de0578160200160208202803683370190505b509050600060015b858111158015610df757508382105b15610e5b57866001600160a01b0316610e0f826110ac565b6001600160a01b031603610e495780838381518110610e3057610e30611d64565b602090810291909101015281610e4581611d09565b9250505b80610e5381611d09565b915050610de8565b50806001600160401b03811115610e7457610e74611b2e565b604051908082528060200260200182016040528015610e9d578160200160208202803683370190505b50935060005b81811015610eea57828181518110610ebd57610ebd611d64565b6020026020010151858281518110610ed757610ed7611d64565b6020908102919091010152600101610ea3565b5050505092915050565b6001600160a01b03918216600090815260056020908152604080832093909416825291909152205460ff1690565b610f2a6111e2565b6001600160a01b038116610f54576000604051631e4fbdf760e01b8152600401610548919061197a565b6106f18161124f565b60006001600160e01b031982166380ac58cd60e01b1480610f8e57506001600160e01b03198216635b5e139f60e01b145b8061045f57506301ffc9a760e01b6001600160e01b031983161461045f565b600080610fb9836110ac565b90506001600160a01b03811661045f57604051637e27328960e01b815260048101849052602401610548565b6000908152600460205260409020546001600160a01b031690565b60008061100c846110ac565b90506001600160a01b038116158061102b57506001600160a01b038516155b61106e5760405162461bcd60e51b81526020600482015260146024820152735342545f4e4f4e5f5452414e5346455241424c4560601b6044820152606401610548565b61107985858561142d565b95945050505050565b6002600854036110a557604051633ee5aeb560e01b815260040160405180910390fd5b6002600855565b6000908152600260205260409020546001600160a01b031690565b60006110d66000836000611000565b90506001600160a01b038116610a5857604051637e27328960e01b815260048101839052602401610548565b6000818152600c602052604090205460609060ff166001190161113e57604051806080016040528060428152602001611f266042913992915050565b6000828152600c602052604090205460ff1661117357604051806080016040528060428152602001611f886042913992915050565b604051806080016040528060428152602001611ee46042913992915050565b60008281526006602052604090206111aa8282611dca565b506040518281527ff8e1a15aba9398e019f0b49df1a4fde98ee17ae345cb5f6b5e2c27f5033e8ce79060200160405180910390a15050565b336111eb610a5c565b6001600160a01b0316146109a8573360405163118cdaa760e01b8152600401610548919061197a565b610a58828260405180602001604052806000815250611521565b6060604051806080016040528060428152602001611f886042913992915050565b600780546001600160a01b038381166001600160a01b0319831681179093556040519116919082907f8be0079c531659141344cd1fd0a4f28419497f9722a3daafe3b4186f6b6457e090600090a35050565b6001600160a01b0383163b156105d657604051630a85bd0160e11b81526001600160a01b0384169063150b7a02906112e3903390889087908790600401611e89565b6020604051808303816000875af192505050801561131e575060408051601f3d908101601f1916820190925261131b91810190611ec6565b60015b61137e573d80801561134c576040519150601f19603f3d011682016040523d82523d6000602084013e611351565b606091505b5080516000036113765783604051633250574960e11b8152600401610548919061197a565b805181602001fd5b6001600160e01b03198116630a85bd0160e11b146113b15783604051633250574960e11b8152600401610548919061197a565b5050505050565b60606113c382610fad565b5060006113db60408051602081019091526000815290565b905060008151116113fb5760405180602001604052806000815250611426565b8061140584611538565b604051602001611416929190611d35565b6040516020818303038152906040525b9392505050565b600080611439846110ac565b90506001600160a01b03831615611455576114558184866115ca565b6001600160a01b038116156114935761147260008560008061162e565b6001600160a01b038116600090815260036020526040902080546000190190555b6001600160a01b038516156114c2576001600160a01b0385166000908152600360205260409020805460010190555b60008481526002602052604080822080546001600160a01b0319166001600160a01b0389811691821790925591518793918516917fddf252ad1be2c89b69c2b068fc378daa952ba7f163c4a11628f55a4df523b3ef91a4949350505050565b61152b838361172b565b6105f760008484846112a1565b6060600061154583611790565b60010190506000816001600160401b0381111561156457611564611b2e565b6040519080825280601f01601f19166020018201604052801561158e576020820181803683370190505b5090508181016020015b600019016f181899199a1a9b1b9c1cb0b131b232b360811b600a86061a8153600a850494508461159857509392505050565b6115d5838383611866565b6105f7576001600160a01b03831661160357604051637e27328960e01b815260048101829052602401610548565b60405163177e802f60e01b81526001600160a01b038316600482015260248101829052604401610548565b808061164257506001600160a01b03821615155b156116fb57600061165284610fad565b90506001600160a01b0383161580159061167e5750826001600160a01b0316816001600160a01b031614155b8015611691575061168f8184610ef4565b155b156116b1578260405163a9fbf51f60e01b8152600401610548919061197a565b81156116f95783856001600160a01b0316826001600160a01b03167f8c5be1e5ebec7d5bd14f71427d1e84f3dd0314c0f7b2291e5b200ac8c7c3b92560405160405180910390a45b505b5050600090815260046020526040902080546001600160a01b0319166001600160a01b0392909216919091179055565b6001600160a01b038216611755576000604051633250574960e11b8152600401610548919061197a565b600061176383836000611000565b90506001600160a01b038116156105f75760006040516339e3563760e11b8152600401610548919061197a565b60008072184f03e93ff9f4daa797ed6e38ed64bf6a1f0160401b83106117cf5772184f03e93ff9f4daa797ed6e38ed64bf6a1f0160401b830492506040015b6904ee2d6d415b85acef8160201b83106117f9576904ee2d6d415b85acef8160201b830492506020015b662386f26fc10000831061181757662386f26fc10000830492506010015b6305f5e100831061182f576305f5e100830492506008015b612710831061184357612710830492506004015b60648310611855576064830492506002015b600a831061045f5760010192915050565b60006001600160a01b03831615801590610d185750826001600160a01b0316846001600160a01b031614806118a057506118a08484610ef4565b80610d185750826001600160a01b03166118b983610fe5565b6001600160a01b031614949350505050565b6001600160e01b0319811681146106f157600080fd5b6000602082840312156118f357600080fd5b8135611426816118cb565b60005b83811015611919578181015183820152602001611901565b50506000910152565b6000815180845261193a8160208601602086016118fe565b601f01601f19169290920160200192915050565b6020815260006114266020830184611922565b60006020828403121561197357600080fd5b5035919050565b6001600160a01b0391909116815260200190565b80356001600160a01b03811681146119a557600080fd5b919050565b600080604083850312156119bd57600080fd5b6119c68361198e565b946020939093013593505050565b6000806000606084860312156119e957600080fd5b6119f28461198e565b9250611a006020850161198e565b9150604084013590509250925092565b60ff91909116815260200190565b803560ff811681146119a557600080fd5b60008060408385031215611a4257600080fd5b611a4b8361198e565b9150611a5960208401611a1e565b90509250929050565b600060208284031215611a7457600080fd5b6114268261198e565b60008060408385031215611a9057600080fd5b82359150611a5960208401611a1e565b803580151581146119a557600080fd5b60008060408385031215611ac357600080fd5b611acc8361198e565b9150611a5960208401611aa0565b60008060008060808587031215611af057600080fd5b611af98561198e565b9350611b0760208601611a1e565b9250611b1560408601611a1e565b9150611b2360608601611aa0565b905092959194509250565b634e487b7160e01b600052604160045260246000fd5b60008060008060808587031215611b5a57600080fd5b611b638561198e565b9350611b716020860161198e565b92506040850135915060608501356001600160401b0380821115611b9457600080fd5b818701915087601f830112611ba857600080fd5b813581811115611bba57611bba611b2e565b604051601f8201601f19908116603f01168101908382118183101715611be257611be2611b2e565b816040528281528a6020848701011115611bfb57600080fd5b82602086016020830137600060208483010152809550505050505092959194509250565b6020808252825182820181905260009190848201906040850190845b81811015611c5757835183529284019291840191600101611c3b565b50909695505050505050565b60008060408385031215611c7657600080fd5b611c7f8361198e565b9150611a596020840161198e565b600181811c90821680611ca157607f821691505b602082108103611cc157634e487b7160e01b600052602260045260246000fd5b50919050565b634e487b7160e01b600052601160045260246000fd5b8181038181111561045f5761045f611cc7565b60ff818116838216019081111561045f5761045f611cc7565b600060018201611d1b57611d1b611cc7565b5060010190565b8082018082111561045f5761045f611cc7565b60008351611d478184602088016118fe565b835190830190611d5b8183602088016118fe565b01949350505050565b634e487b7160e01b600052603260045260246000fd5b601f8211156105f7576000816000526020600020601f850160051c81016020861015611da35750805b601f850160051c820191505b81811015611dc257828155600101611daf565b505050505050565b81516001600160401b03811115611de357611de3611b2e565b611df781611df18454611c8d565b84611d7a565b602080601f831160018114611e2c5760008415611e145750858301515b600019600386901b1c1916600185901b178555611dc2565b600085815260208120601f198616915b82811015611e5b57888601518255948401946001909101908401611e3c565b5085821015611e795787850151600019600388901b60f8161c191681555b5050505050600190811b01905550565b6001600160a01b0385811682528416602082015260408101839052608060608201819052600090611ebc90830184611922565b9695505050505050565b600060208284031215611ed857600080fd5b8151611426816118cb56fe697066733a2f2f6261667962656967657a61707a7762686874633474666972657832667332326e6e6e726c376b616d7a616b7a6e6c7637696f73736632346d6f7669697066733a2f2f62616679626569676c336d33797661327334777172366f796879776737767a656b6a6d3579357370666f6d6a347969666c79786c6e743261347334c6fd6d4adf53ebb5be720db2f6c88a9664984020ab15e884f3dee4a406b170c7697066733a2f2f62616679626569647163636d34783475617a6d73626c746f7171736b36746b66756f706c79366e65746771676a70327861683776716a6879777875a26469706673582212200d78356e602d141a6ff2d2c2cefd9c250f21416e3ee3ff57aabd20a48b9047ee64736f6c63430008190033",
  "linkReferences": {},
  "deployedLinkReferences": {}
}